Archive member included to satisfy reference by file (symbol)

c:/program files (x86)/atollic/truestudio for stm32 9.0.1/armtools/bin/../lib/gcc/arm-atollic-eabi/6.3.1/../../../../arm-atollic-eabi/lib/armv7-m\libc_nano.a(lib_a-init.o)
                              startup\startup_stm32f103xb.o (__libc_init_array)
c:/program files (x86)/atollic/truestudio for stm32 9.0.1/armtools/bin/../lib/gcc/arm-atollic-eabi/6.3.1/../../../../arm-atollic-eabi/lib/armv7-m\libc_nano.a(lib_a-memset.o)
                              Drivers\STM32F1xx_HAL_Driver\Src\stm32f1xx_hal_rcc.o (memset)
c:/program files (x86)/atollic/truestudio for stm32 9.0.1/armtools/bin/../lib/gcc/arm-atollic-eabi/6.3.1/../../../../arm-atollic-eabi/lib/armv7-m\libc_nano.a(lib_a-strlen.o)
                              Src\main.o (strlen)
c:/program files (x86)/atollic/truestudio for stm32 9.0.1/armtools/bin/../lib/gcc/arm-atollic-eabi/6.3.1/../../../../arm-atollic-eabi/lib/armv7-m\libc_nano.a(lib_a-strncpy.o)
                              Src\usbd_cdc_if.o (strncpy)
c:/program files (x86)/atollic/truestudio for stm32 9.0.1/armtools/bin/../lib/gcc/arm-atollic-eabi/6.3.1/armv7-m\libgcc.a(_lshrdi3.o)
                              Drivers\STM32F1xx_HAL_Driver\Src\stm32f1xx_hal_flash.o (__aeabi_llsr)

Allocating common symbols
Common symbol       size              file

hUsbDeviceFS        0x224             Src\usb_device.o
hi2c1               0x54              Src\main.o
LCD_X               0x1               Src\main.o
uwTick              0x4               Drivers\STM32F1xx_HAL_Driver\Src\stm32f1xx_hal.o
pFlash              0x20              Drivers\STM32F1xx_HAL_Driver\Src\stm32f1xx_hal_flash.o
UserRxBufferFS      0x3e8             Src\usbd_cdc_if.o
gg                  0x2               Src\main.o
UserTxBufferFS      0x3e8             Src\usbd_cdc_if.o
str_rx              0x28              Src\main.o
hpcd_USB_FS         0x460             Src\usbd_conf.o
LCD_Y               0x1               Src\main.o
USBD_StrDesc        0x200             Src\usbd_desc.o

Discarded input sections

 .text          0x00000000        0x0 c:/program files (x86)/atollic/truestudio for stm32 9.0.1/armtools/bin/../lib/gcc/arm-atollic-eabi/6.3.1/armv7-m/crti.o
 .data          0x00000000        0x0 c:/program files (x86)/atollic/truestudio for stm32 9.0.1/armtools/bin/../lib/gcc/arm-atollic-eabi/6.3.1/armv7-m/crti.o
 .bss           0x00000000        0x0 c:/program files (x86)/atollic/truestudio for stm32 9.0.1/armtools/bin/../lib/gcc/arm-atollic-eabi/6.3.1/armv7-m/crti.o
 .data          0x00000000        0x4 c:/program files (x86)/atollic/truestudio for stm32 9.0.1/armtools/bin/../lib/gcc/arm-atollic-eabi/6.3.1/armv7-m/crtbegin.o
 .text          0x00000000        0x0 Drivers\STM32F1xx_HAL_Driver\Src\stm32f1xx_hal.o
 .data          0x00000000        0x0 Drivers\STM32F1xx_HAL_Driver\Src\stm32f1xx_hal.o
 .bss           0x00000000        0x0 Drivers\STM32F1xx_HAL_Driver\Src\stm32f1xx_hal.o
 .text.HAL_MspInit
                0x00000000        0x2 Drivers\STM32F1xx_HAL_Driver\Src\stm32f1xx_hal.o
 .text.HAL_MspDeInit
                0x00000000        0x2 Drivers\STM32F1xx_HAL_Driver\Src\stm32f1xx_hal.o
 .text.HAL_DeInit
                0x00000000       0x20 Drivers\STM32F1xx_HAL_Driver\Src\stm32f1xx_hal.o
 .text.HAL_GetTickPrio
                0x00000000        0xc Drivers\STM32F1xx_HAL_Driver\Src\stm32f1xx_hal.o
 .text.HAL_SetTickFreq
                0x00000000       0x24 Drivers\STM32F1xx_HAL_Driver\Src\stm32f1xx_hal.o
 .text.HAL_GetTickFreq
Memory Configuration

Name             Origin             Length             Attributes
RAM              0x20000000         0x00005000         xrw
FLASH            0x08000000         0x00010000         xr
*default*        0x00000000         0xffffffff

Linker script and memory map

LOAD c:/program files (x86)/atollic/truestudio for stm32 9.0.1/armtools/bin/../lib/gcc/arm-atollic-eabi/6.3.1/armv7-m/crti.o
LOAD c:/program files (x86)/atollic/truestudio for stm32 9.0.1/armtools/bin/../lib/gcc/arm-atollic-eabi/6.3.1/armv7-m/crtbegin.o
LOAD Drivers\STM32F1xx_HAL_Driver\Src\stm32f1xx_hal.o
LOAD Drivers\STM32F1xx_HAL_Driver\Src\stm32f1xx_hal_cortex.o
LOAD Drivers\STM32F1xx_HAL_Driver\Src\stm32f1xx_hal_dma.o
LOAD Drivers\STM32F1xx_HAL_Driver\Src\stm32f1xx_hal_flash.o
LOAD Drivers\STM32F1xx_HAL_Driver\Src\stm32f1xx_hal_flash_ex.o
LOAD Drivers\STM32F1xx_HAL_Driver\Src\stm32f1xx_hal_gpio.o
LOAD Drivers\STM32F1xx_HAL_Driver\Src\stm32f1xx_hal_gpio_ex.o
LOAD Drivers\STM32F1xx_HAL_Driver\Src\stm32f1xx_hal_i2c.o
LOAD Drivers\STM32F1xx_HAL_Driver\Src\stm32f1xx_hal_pcd.o
LOAD Drivers\STM32F1xx_HAL_Driver\Src\stm32f1xx_hal_pcd_ex.o
LOAD Drivers\STM32F1xx_HAL_Driver\Src\stm32f1xx_hal_pwr.o
LOAD Drivers\STM32F1xx_HAL_Driver\Src\stm32f1xx_hal_rcc.o
LOAD Drivers\STM32F1xx_HAL_Driver\Src\stm32f1xx_hal_rcc_ex.o
LOAD Drivers\STM32F1xx_HAL_Driver\Src\stm32f1xx_hal_tim.o
LOAD Drivers\STM32F1xx_HAL_Driver\Src\stm32f1xx_hal_tim_ex.o
LOAD Drivers\STM32F1xx_HAL_Driver\Src\stm32f1xx_ll_usb.o
LOAD Middlewares\ST\STM32_USB_Device_Library\Class\CDC\Src\usbd_cdc.o
LOAD Middlewares\ST\STM32_USB_Device_Library\Core\Src\usbd_core.o
LOAD Middlewares\ST\STM32_USB_Device_Library\Core\Src\usbd_ctlreq.o
LOAD Middlewares\ST\STM32_USB_Device_Library\Core\Src\usbd_ioreq.o
LOAD Src\main.o
LOAD Src\stm32f1xx_hal_msp.o
LOAD Src\stm32f1xx_it.o
LOAD Src\system_stm32f1xx.o
LOAD Src\usb_device.o
LOAD Src\usbd_cdc_if.o
LOAD Src\usbd_conf.o
LOAD Src\usbd_desc.o
LOAD startup\startup_stm32f103xb.o
                0x00000080                malloc_getpagesize_P = 0x80
START GROUP
LOAD c:/program files (x86)/atollic/truestudio for stm32 9.0.1/armtools/bin/../lib/gcc/arm-atollic-eabi/6.3.1/../../../../arm-atollic-eabi/lib/armv7-m\libc_nano.a
LOAD c:/program files (x86)/atollic/truestudio for stm32 9.0.1/armtools/bin/../lib/gcc/arm-atollic-eabi/6.3.1/../../../../arm-atollic-eabi/lib/armv7-m\libm.a
END GROUP
START GROUP
LOAD c:/program files (x86)/atollic/truestudio for stm32 9.0.1/armtools/bin/../lib/gcc/arm-atollic-eabi/6.3.1/armv7-m\libgcc.a
LOAD c:/program files (x86)/atollic/truestudio for stm32 9.0.1/armtools/bin/../lib/gcc/arm-atollic-eabi/6.3.1/../../../../arm-atollic-eabi/lib/armv7-m\libc_nano.a
END GROUP
START GROUP
LOAD c:/program files (x86)/atollic/truestudio for stm32 9.0.1/armtools/bin/../lib/gcc/arm-atollic-eabi/6.3.1/armv7-m\libgcc.a
LOAD c:/program files (x86)/atollic/truestudio for stm32 9.0.1/armtools/bin/../lib/gcc/arm-atollic-eabi/6.3.1/../../../../arm-atollic-eabi/lib/armv7-m\libc_nano.a
LOAD c:/program files (x86)/atollic/truestudio for stm32 9.0.1/armtools/bin/../lib/gcc/arm-atollic-eabi/6.3.1/../../../../arm-atollic-eabi/lib/armv7-m\libnosys.a
END GROUP
START GROUP
LOAD c:/program files (x86)/atollic/truestudio for stm32 9.0.1/armtools/bin/../lib/gcc/arm-atollic-eabi/6.3.1/armv7-m\libgcc.a
LOAD c:/program files (x86)/atollic/truestudio for stm32 9.0.1/armtools/bin/../lib/gcc/arm-atollic-eabi/6.3.1/../../../../arm-atollic-eabi/lib/armv7-m\libc_nano.a
LOAD c:/program files (x86)/atollic/truestudio for stm32 9.0.1/armtools/bin/../lib/gcc/arm-atollic-eabi/6.3.1/../../../../arm-atollic-eabi/lib/armv7-m\libnosys.a
END GROUP
LOAD c:/program files (x86)/atollic/truestudio for stm32 9.0.1/armtools/bin/../lib/gcc/arm-atollic-eabi/6.3.1/armv7-m/crtend.o
LOAD c:/program files (x86)/atollic/truestudio for stm32 9.0.1/armtools/bin/../lib/gcc/arm-atollic-eabi/6.3.1/armv7-m/crtn.o
                0x20005000                _estack = 0x20005000
                0x00000200                _Min_Heap_Size = 0x200
                0x00000400                _Min_Stack_Size = 0x400

.isr_vector     0x08000000      0x10c
                0x08000000                . = ALIGN (0x4)
 *(.isr_vector)
 .isr_vector    0x08000000      0x10c startup\startup_stm32f103xb.o
                0x08000000                g_pfnVectors
                0x0800010c                . = ALIGN (0x4)

.text           0x0800010c     0x2f90
                0x0800010c                . = ALIGN (0x4)
 *(.text)
 .text          0x0800010c       0x40 c:/program files (x86)/atollic/truestudio for stm32 9.0.1/armtools/bin/../lib/gcc/arm-atollic-eabi/6.3.1/armv7-m/crtbegin.o
 .text          0x0800014c       0x10 c:/program files (x86)/atollic/truestudio for stm32 9.0.1/armtools/bin/../lib/gcc/arm-atollic-eabi/6.3.1/../../../../arm-atollic-eabi/lib/armv7-m\libc_nano.a(lib_a-strlen.o)
                0x0800014c                strlen
 *(.text*)
 .text.HAL_InitTick
                0x0800015c       0x48 Drivers\STM32F1xx_HAL_Driver\Src\stm32f1xx_hal.o
                0x0800015c                HAL_InitTick
 .text.HAL_Init
                0x080001a4       0x24 Drivers\STM32F1xx_HAL_Driver\Src\stm32f1xx_hal.o
                0x080001a4                HAL_Init
 .text.HAL_IncTick
                0x080001c8       0x18 Drivers\STM32F1xx_HAL_Driver\Src\stm32f1xx_hal.o
                0x080001c8                HAL_IncTick
 .text.HAL_GetTick
                0x080001e0        0xc Drivers\STM32F1xx_HAL_Driver\Src\stm32f1xx_hal.o
                0x080001e0                HAL_GetTick
 .text.HAL_Delay
                0x080001ec       0x24 Drivers\STM32F1xx_HAL_Driver\Src\stm32f1xx_hal.o
                0x080001ec                HAL_Delay
 .text.HAL_NVIC_SetPriorityGrouping
                0x08000210       0x24 Drivers\STM32F1xx_HAL_Driver\Src\stm32f1xx_hal_cortex.o
                0x08000210                HAL_NVIC_SetPriorityGrouping
 .text.HAL_NVIC_SetPriority
                0x08000234       0x68 Drivers\STM32F1xx_HAL_Driver\Src\stm32f1xx_hal_cortex.o
                0x08000234                HAL_NVIC_SetPriority
 .text.HAL_NVIC_EnableIRQ
                0x0800029c       0x18 Drivers\STM32F1xx_HAL_Driver\Src\stm32f1xx_hal_cortex.o
                0x0800029c                HAL_NVIC_EnableIRQ
 .text.HAL_SYSTICK_Config
                0x080002b4       0x2c Drivers\STM32F1xx_HAL_Driver\Src\stm32f1xx_hal_cortex.o
                0x080002b4                HAL_SYSTICK_Config
 .text.HAL_SYSTICK_CLKSourceConfig
                0x080002e0       0x18 Drivers\STM32F1xx_HAL_Driver\Src\stm32f1xx_hal_cortex.o
                0x080002e0                HAL_SYSTICK_CLKSourceConfig
 .text.HAL_SYSTICK_Callback
                0x080002f8        0x2 Drivers\STM32F1xx_HAL_Driver\Src\stm32f1xx_hal_cortex.o
                0x080002f8                HAL_SYSTICK_Callback
 .text.HAL_SYSTICK_IRQHandler
                0x080002fa        0x8 Drivers\STM32F1xx_HAL_Driver\Src\stm32f1xx_hal_cortex.o
                0x080002fa                HAL_SYSTICK_IRQHandler
 *fill*         0x08000302        0x2 
 .text.HAL_GPIO_Init
                0x08000304      0x1c0 Drivers\STM32F1xx_HAL_Driver\Src\stm32f1xx_hal_gpio.o
                0x08000304                HAL_GPIO_Init
 .text.I2C_IsAcknowledgeFailed
                0x080004c4       0x2a Drivers\STM32F1xx_HAL_Driver\Src\stm32f1xx_hal_i2c.o
 .text.I2C_WaitOnMasterAddressFlagUntilTimeout
                0x080004ee       0x80 Drivers\STM32F1xx_HAL_Driver\Src\stm32f1xx_hal_i2c.o
 .text.I2C_WaitOnFlagUntilTimeout
                0x0800056e       0x5c Drivers\STM32F1xx_HAL_Driver\Src\stm32f1xx_hal_i2c.o
 .text.I2C_WaitOnTXEFlagUntilTimeout
                0x080005ca       0x4c Drivers\STM32F1xx_HAL_Driver\Src\stm32f1xx_hal_i2c.o
 .text.I2C_WaitOnBTFFlagUntilTimeout
                0x08000616       0x4c Drivers\STM32F1xx_HAL_Driver\Src\stm32f1xx_hal_i2c.o
 *fill*         0x08000662        0x2 
 .text.HAL_I2C_Init
                0x08000664      0x100 Drivers\STM32F1xx_HAL_Driver\Src\stm32f1xx_hal_i2c.o
                0x08000664                HAL_I2C_Init
 .text.HAL_I2C_Master_Transmit
                0x08000764      0x1ac Drivers\STM32F1xx_HAL_Driver\Src\stm32f1xx_hal_i2c.o
                0x08000764                HAL_I2C_Master_Transmit
 .text.HAL_PCD_Init
                0x08000910       0xd2 Drivers\STM32F1xx_HAL_Driver\Src\stm32f1xx_hal_pcd.o
                0x08000910                HAL_PCD_Init
 .text.HAL_PCD_Start
                0x080009e2       0x2e Drivers\STM32F1xx_HAL_Driver\Src\stm32f1xx_hal_pcd.o
                0x080009e2                HAL_PCD_Start
 .text.HAL_PCD_SetAddress
                0x08000a10       0x28 Drivers\STM32F1xx_HAL_Driver\Src\stm32f1xx_hal_pcd.o
                0x08000a10                HAL_PCD_SetAddress
 .text.HAL_PCD_EP_Open
                0x08000a38       0x46 Drivers\STM32F1xx_HAL_Driver\Src\stm32f1xx_hal_pcd.o
                0x08000a38                HAL_PCD_EP_Open
 .text.HAL_PCD_EP_Close
                0x08000a7e       0x42 Drivers\STM32F1xx_HAL_Driver\Src\stm32f1xx_hal_pcd.o
                0x08000a7e                HAL_PCD_EP_Close
 .text.HAL_PCD_EP_Receive
                0x08000ac0       0x30 Drivers\STM32F1xx_HAL_Driver\Src\stm32f1xx_hal_pcd.o
                0x08000ac0                HAL_PCD_EP_Receive
 .text.HAL_PCD_EP_GetRxCount
                0x08000af0        0xe Drivers\STM32F1xx_HAL_Driver\Src\stm32f1xx_hal_pcd.o
                0x08000af0                HAL_PCD_EP_GetRxCount
 .text.HAL_PCD_EP_Transmit
                0x08000afe       0x2c Drivers\STM32F1xx_HAL_Driver\Src\stm32f1xx_hal_pcd.o
                0x08000afe                HAL_PCD_EP_Transmit
 *fill*         0x08000b2a        0x2 
 .text.HAL_PCD_IRQHandler
                0x08000b2c      0x4f0 Drivers\STM32F1xx_HAL_Driver\Src\stm32f1xx_hal_pcd.o
                0x08000b2c                HAL_PCD_IRQHandler
 .text.HAL_PCD_EP_SetStall
                0x0800101c       0x52 Drivers\STM32F1xx_HAL_Driver\Src\stm32f1xx_hal_pcd.o
                0x0800101c                HAL_PCD_EP_SetStall
 .text.HAL_PCD_EP_ClrStall
                0x0800106e       0x46 Drivers\STM32F1xx_HAL_Driver\Src\stm32f1xx_hal_pcd.o
                0x0800106e                HAL_PCD_EP_ClrStall
 .text.HAL_PCDEx_PMAConfig
                0x080010b4       0x30 Drivers\STM32F1xx_HAL_Driver\Src\stm32f1xx_hal_pcd_ex.o
                0x080010b4                HAL_PCDEx_PMAConfig
 .text.HAL_RCC_OscConfig
                0x080010e4      0x318 Drivers\STM32F1xx_HAL_Driver\Src\stm32f1xx_hal_rcc.o
                0x080010e4                HAL_RCC_OscConfig
 .text.HAL_RCC_GetSysClockFreq
                0x080013fc       0x78 Drivers\STM32F1xx_HAL_Driver\Src\stm32f1xx_hal_rcc.o
                0x080013fc                HAL_RCC_GetSysClockFreq
 .text.HAL_RCC_ClockConfig
                0x08001474      0x148 Drivers\STM32F1xx_HAL_Driver\Src\stm32f1xx_hal_rcc.o
                0x08001474                HAL_RCC_ClockConfig
 .text.HAL_RCC_GetHCLKFreq
                0x080015bc        0xc Drivers\STM32F1xx_HAL_Driver\Src\stm32f1xx_hal_rcc.o
                0x080015bc                HAL_RCC_GetHCLKFreq
 .text.HAL_RCC_GetPCLK1Freq
                0x080015c8       0x20 Drivers\STM32F1xx_HAL_Driver\Src\stm32f1xx_hal_rcc.o
                0x080015c8                HAL_RCC_GetPCLK1Freq
 .text.HAL_RCCEx_PeriphCLKConfig
                0x080015e8       0xf0 Drivers\STM32F1xx_HAL_Driver\Src\stm32f1xx_hal_rcc_ex.o
                0x080015e8                HAL_RCCEx_PeriphCLKConfig
 .text.USB_CoreInit
                0x080016d8        0xe Drivers\STM32F1xx_HAL_Driver\Src\stm32f1xx_ll_usb.o
                0x080016d8                USB_CoreInit
 .text.USB_EnableGlobalInt
                0x080016e6       0x12 Drivers\STM32F1xx_HAL_Driver\Src\stm32f1xx_ll_usb.o
                0x080016e6                USB_EnableGlobalInt
 .text.USB_DisableGlobalInt
                0x080016f8       0x14 Drivers\STM32F1xx_HAL_Driver\Src\stm32f1xx_ll_usb.o
                0x080016f8                USB_DisableGlobalInt
 .text.USB_SetCurrentMode
                0x0800170c        0x4 Drivers\STM32F1xx_HAL_Driver\Src\stm32f1xx_ll_usb.o
                0x0800170c                USB_SetCurrentMode
 .text.USB_DevInit
                0x08001710       0x36 Drivers\STM32F1xx_HAL_Driver\Src\stm32f1xx_ll_usb.o
                0x08001710                USB_DevInit
 *fill*         0x08001746        0x2 
 .text.USB_ActivateEndpoint
                0x08001748      0x2e4 Drivers\STM32F1xx_HAL_Driver\Src\stm32f1xx_ll_usb.o
                0x08001748                USB_ActivateEndpoint
 .text.USB_DeactivateEndpoint
                0x08001a2c      0x19c Drivers\STM32F1xx_HAL_Driver\Src\stm32f1xx_ll_usb.o
                0x08001a2c                USB_DeactivateEndpoint
 .text.USB_EPSetStall
                0x08001bc8       0x64 Drivers\STM32F1xx_HAL_Driver\Src\stm32f1xx_ll_usb.o
                0x08001bc8                USB_EPSetStall
 .text.USB_EPClearStall
                0x08001c2c       0x84 Drivers\STM32F1xx_HAL_Driver\Src\stm32f1xx_ll_usb.o
                0x08001c2c                USB_EPClearStall
 .text.USB_SetDevAddress
                0x08001cb0        0xc Drivers\STM32F1xx_HAL_Driver\Src\stm32f1xx_ll_usb.o
                0x08001cb0                USB_SetDevAddress
 .text.USB_DevConnect
                0x08001cbc        0x4 Drivers\STM32F1xx_HAL_Driver\Src\stm32f1xx_ll_usb.o
                0x08001cbc                USB_DevConnect
 .text.USB_DevDisconnect
                0x08001cc0        0x4 Drivers\STM32F1xx_HAL_Driver\Src\stm32f1xx_ll_usb.o
                0x08001cc0                USB_DevDisconnect
 .text.USB_ReadInterrupts
                0x08001cc4        0x8 Drivers\STM32F1xx_HAL_Driver\Src\stm32f1xx_ll_usb.o
                0x08001cc4                USB_ReadInterrupts
 .text.USB_EP0_OutStart
                0x08001ccc        0x4 Drivers\STM32F1xx_HAL_Driver\Src\stm32f1xx_ll_usb.o
                0x08001ccc                USB_EP0_OutStart
 .text.USB_WritePMA
                0x08001cd0       0x22 Drivers\STM32F1xx_HAL_Driver\Src\stm32f1xx_ll_usb.o
                0x08001cd0                USB_WritePMA
 *fill*         0x08001cf2        0x2 
 .text.USB_EPStartXfer
                0x08001cf4      0x200 Drivers\STM32F1xx_HAL_Driver\Src\stm32f1xx_ll_usb.o
                0x08001cf4                USB_EPStartXfer
 .text.USB_ReadPMA
                0x08001ef4       0x22 Drivers\STM32F1xx_HAL_Driver\Src\stm32f1xx_ll_usb.o
                0x08001ef4                USB_ReadPMA
 .text.USBD_CDC_DataIn
                0x08001f16       0x12 Middlewares\ST\STM32_USB_Device_Library\Class\CDC\Src\usbd_cdc.o
 .text.USBD_CDC_EP0_RxReady
                0x08001f28       0x28 Middlewares\ST\STM32_USB_Device_Library\Class\CDC\Src\usbd_cdc.o
 .text.USBD_CDC_GetFSCfgDesc
                0x08001f50        0xc Middlewares\ST\STM32_USB_Device_Library\Class\CDC\Src\usbd_cdc.o
 .text.USBD_CDC_GetHSCfgDesc
                0x08001f5c        0xc Middlewares\ST\STM32_USB_Device_Library\Class\CDC\Src\usbd_cdc.o
 .text.USBD_CDC_GetOtherSpeedCfgDesc
                0x08001f68        0xc Middlewares\ST\STM32_USB_Device_Library\Class\CDC\Src\usbd_cdc.o
 .text.USBD_CDC_GetDeviceQualifierDescriptor
                0x08001f74        0xc Middlewares\ST\STM32_USB_Device_Library\Class\CDC\Src\usbd_cdc.o
                0x08001f74                USBD_CDC_GetDeviceQualifierDescriptor
 .text.USBD_CDC_DataOut
                0x08001f80       0x2e Middlewares\ST\STM32_USB_Device_Library\Class\CDC\Src\usbd_cdc.o
 *fill*         0x08001fae        0x2 
 .text.USBD_CDC_Setup
                0x08001fb0       0x68 Middlewares\ST\STM32_USB_Device_Library\Class\CDC\Src\usbd_cdc.o
 .text.USBD_CDC_DeInit
                0x08002018       0x3a Middlewares\ST\STM32_USB_Device_Library\Class\CDC\Src\usbd_cdc.o
 .text.USBD_CDC_Init
                0x08002052       0x8c Middlewares\ST\STM32_USB_Device_Library\Class\CDC\Src\usbd_cdc.o
 .text.USBD_CDC_RegisterInterface
                0x080020de        0xe Middlewares\ST\STM32_USB_Device_Library\Class\CDC\Src\usbd_cdc.o
                0x080020de                USBD_CDC_RegisterInterface
 .text.USBD_CDC_SetTxBuffer
                0x080020ec       0x10 Middlewares\ST\STM32_USB_Device_Library\Class\CDC\Src\usbd_cdc.o
                0x080020ec                USBD_CDC_SetTxBuffer
 .text.USBD_CDC_SetRxBuffer
                0x080020fc        0xc Middlewares\ST\STM32_USB_Device_Library\Class\CDC\Src\usbd_cdc.o
                0x080020fc                USBD_CDC_SetRxBuffer
 .text.USBD_CDC_TransmitPacket
                0x08002108       0x2e Middlewares\ST\STM32_USB_Device_Library\Class\CDC\Src\usbd_cdc.o
                0x08002108                USBD_CDC_TransmitPacket
 .text.USBD_CDC_ReceivePacket
                0x08002136       0x26 Middlewares\ST\STM32_USB_Device_Library\Class\CDC\Src\usbd_cdc.o
                0x08002136                USBD_CDC_ReceivePacket
 .text.USBD_Init
                0x0800215c       0x2a Middlewares\ST\STM32_USB_Device_Library\Core\Src\usbd_core.o
                0x0800215c                USBD_Init
 .text.USBD_RegisterClass
                0x08002186        0xe Middlewares\ST\STM32_USB_Device_Library\Core\Src\usbd_core.o
                0x08002186                USBD_RegisterClass
 .text.USBD_Start
                0x08002194        0xa Middlewares\ST\STM32_USB_Device_Library\Core\Src\usbd_core.o
                0x08002194                USBD_Start
 .text.USBD_SetClassConfig
                0x0800219e       0x16 Middlewares\ST\STM32_USB_Device_Library\Core\Src\usbd_core.o
                0x0800219e                USBD_SetClassConfig
 .text.USBD_ClrClassConfig
                0x080021b4        0xe Middlewares\ST\STM32_USB_Device_Library\Core\Src\usbd_core.o
                0x080021b4                USBD_ClrClassConfig
 .text.USBD_LL_SetupStage
                0x080021c2       0x5a Middlewares\ST\STM32_USB_Device_Library\Core\Src\usbd_core.o
                0x080021c2                USBD_LL_SetupStage
 .text.USBD_LL_DataOutStage
                0x0800221c       0x64 Middlewares\ST\STM32_USB_Device_Library\Core\Src\usbd_core.o
                0x0800221c                USBD_LL_DataOutStage
 .text.USBD_LL_DataInStage
                0x08002280       0x9e Middlewares\ST\STM32_USB_Device_Library\Core\Src\usbd_core.o
                0x08002280                USBD_LL_DataInStage
 .text.USBD_LL_Reset
                0x0800231e       0x3e Middlewares\ST\STM32_USB_Device_Library\Core\Src\usbd_core.o
                0x0800231e                USBD_LL_Reset
 .text.USBD_LL_SetSpeed
                0x0800235c        0x6 Middlewares\ST\STM32_USB_Device_Library\Core\Src\usbd_core.o
                0x0800235c                USBD_LL_SetSpeed
 .text.USBD_LL_Suspend
                0x08002362       0x12 Middlewares\ST\STM32_USB_Device_Library\Core\Src\usbd_core.o
                0x08002362                USBD_LL_Suspend
 .text.USBD_LL_Resume
                0x08002374        0xc Middlewares\ST\STM32_USB_Device_Library\Core\Src\usbd_core.o
                0x08002374                USBD_LL_Resume
 .text.USBD_LL_SOF
                0x08002380       0x18 Middlewares\ST\STM32_USB_Device_Library\Core\Src\usbd_core.o
                0x08002380                USBD_LL_SOF
 .text.USBD_CtlError.constprop.0
                0x08002398       0x16 Middlewares\ST\STM32_USB_Device_Library\Core\Src\usbd_ctlreq.o
 *fill*         0x080023ae        0x2 
 .text.USBD_StdDevReq
                0x080023b0      0x1f4 Middlewares\ST\STM32_USB_Device_Library\Core\Src\usbd_ctlreq.o
                0x080023b0                USBD_StdDevReq
 .text.USBD_StdItfReq
                0x080025a4       0x30 Middlewares\ST\STM32_USB_Device_Library\Core\Src\usbd_ctlreq.o
                0x080025a4                USBD_StdItfReq
 .text.USBD_StdEPReq
                0x080025d4       0xc6 Middlewares\ST\STM32_USB_Device_Library\Core\Src\usbd_ctlreq.o
                0x080025d4                USBD_StdEPReq
 .text.USBD_ParseSetupRequest
                0x0800269a       0x28 Middlewares\ST\STM32_USB_Device_Library\Core\Src\usbd_ctlreq.o
                0x0800269a                USBD_ParseSetupRequest
 .text.USBD_GetString
                0x080026c2       0x38 Middlewares\ST\STM32_USB_Device_Library\Core\Src\usbd_ctlreq.o
                0x080026c2                USBD_GetString
 .text.USBD_CtlSendData
                0x080026fa       0x1a Middlewares\ST\STM32_USB_Device_Library\Core\Src\usbd_ioreq.o
                0x080026fa                USBD_CtlSendData
 .text.USBD_CtlContinueSendData
                0x08002714       0x10 Middlewares\ST\STM32_USB_Device_Library\Core\Src\usbd_ioreq.o
                0x08002714                USBD_CtlContinueSendData
 .text.USBD_CtlPrepareRx
                0x08002724       0x1e Middlewares\ST\STM32_USB_Device_Library\Core\Src\usbd_ioreq.o
                0x08002724                USBD_CtlPrepareRx
 .text.USBD_CtlContinueRx
                0x08002742       0x10 Middlewares\ST\STM32_USB_Device_Library\Core\Src\usbd_ioreq.o
                0x08002742                USBD_CtlContinueRx
 .text.USBD_CtlSendStatus
                0x08002752       0x16 Middlewares\ST\STM32_USB_Device_Library\Core\Src\usbd_ioreq.o
                0x08002752                USBD_CtlSendStatus
 .text.USBD_CtlReceiveStatus
                0x08002768       0x16 Middlewares\ST\STM32_USB_Device_Library\Core\Src\usbd_ioreq.o
                0x08002768                USBD_CtlReceiveStatus
 *fill*         0x0800277e        0x2 
 .text.sendCommand
                0x08002780       0x28 Src\main.o
                0x08002780                sendCommand
 .text.LCD_Goto
                0x080027a8       0x34 Src\main.o
                0x080027a8                LCD_Goto
 .text.LCD_Char
                0x080027dc       0x58 Src\main.o
                0x080027dc                LCD_Char
 .text.OLED_string
                0x08002834       0x12 Src\main.o
                0x08002834                OLED_string
 .text.OLED_num_to_str
                0x08002846       0x7a Src\main.o
                0x08002846                OLED_num_to_str
 .text.OLED_init
                0x080028c0       0x9c Src\main.o
                0x080028c0                OLED_init
 .text.SystemClock_Config
                0x0800295c       0x82 Src\main.o
                0x0800295c                SystemClock_Config
 *fill*         0x080029de        0x2 
 .text.startup.main
                0x080029e0       0xc8 Src\main.o
                0x080029e0                main
 .text._Error_Handler
                0x08002aa8        0x2 Src\main.o
                0x08002aa8                _Error_Handler
 *fill*         0x08002aaa        0x2 
 .text.HAL_MspInit
                0x08002aac       0xa0 Src\stm32f1xx_hal_msp.o
                0x08002aac                HAL_MspInit
 .text.HAL_I2C_MspInit
                0x08002b4c       0x44 Src\stm32f1xx_hal_msp.o
                0x08002b4c                HAL_I2C_MspInit
 .text.NMI_Handler
                0x08002b90        0x2 Src\stm32f1xx_it.o
                0x08002b90                NMI_Handler
 .text.HardFault_Handler
                0x08002b92        0x2 Src\stm32f1xx_it.o
                0x08002b92                HardFault_Handler
 .text.MemManage_Handler
                0x08002b94        0x2 Src\stm32f1xx_it.o
                0x08002b94                MemManage_Handler
 .text.BusFault_Handler
                0x08002b96        0x2 Src\stm32f1xx_it.o
                0x08002b96                BusFault_Handler
 .text.UsageFault_Handler
                0x08002b98        0x2 Src\stm32f1xx_it.o
                0x08002b98                UsageFault_Handler
 .text.SVC_Handler
                0x08002b9a        0x2 Src\stm32f1xx_it.o
                0x08002b9a                SVC_Handler
 .text.DebugMon_Handler
                0x08002b9c        0x2 Src\stm32f1xx_it.o
                0x08002b9c                DebugMon_Handler
 .text.PendSV_Handler
                0x08002b9e        0x2 Src\stm32f1xx_it.o
                0x08002b9e                PendSV_Handler
 .text.SysTick_Handler
                0x08002ba0        0xe Src\stm32f1xx_it.o
                0x08002ba0                SysTick_Handler
 *fill*         0x08002bae        0x2 
 .text.USB_LP_CAN1_RX0_IRQHandler
                0x08002bb0        0xc Src\stm32f1xx_it.o
                0x08002bb0                USB_LP_CAN1_RX0_IRQHandler
 .text.SystemInit
                0x08002bbc       0x4c Src\system_stm32f1xx.o
                0x08002bbc                SystemInit
 .text.MX_USB_DEVICE_Init
                0x08002c08       0x38 Src\usb_device.o
                0x08002c08                MX_USB_DEVICE_Init
 .text.CDC_DeInit_FS
                0x08002c40        0x4 Src\usbd_cdc_if.o
 .text.CDC_Control_FS
                0x08002c44        0x4 Src\usbd_cdc_if.o
 .text.CDC_Receive_FS
                0x08002c48       0x28 Src\usbd_cdc_if.o
 .text.CDC_Init_FS
                0x08002c70       0x28 Src\usbd_cdc_if.o
 .text.CDC_Transmit_FS
                0x08002c98       0x2c Src\usbd_cdc_if.o
                0x08002c98                CDC_Transmit_FS
 .text.HAL_PCD_MspInit
                0x08002cc4       0x3c Src\usbd_conf.o
                0x08002cc4                HAL_PCD_MspInit
 .text.HAL_PCD_SetupStageCallback
                0x08002d00        0xc Src\usbd_conf.o
                0x08002d00                HAL_PCD_SetupStageCallback
 .text.HAL_PCD_DataOutStageCallback
                0x08002d0c       0x10 Src\usbd_conf.o
                0x08002d0c                HAL_PCD_DataOutStageCallback
 .text.HAL_PCD_DataInStageCallback
                0x08002d1c        0xe Src\usbd_conf.o
                0x08002d1c                HAL_PCD_DataInStageCallback
 .text.HAL_PCD_SOFCallback
                0x08002d2a        0x8 Src\usbd_conf.o
                0x08002d2a                HAL_PCD_SOFCallback
 .text.HAL_PCD_ResetCallback
                0x08002d32       0x1a Src\usbd_conf.o
                0x08002d32                HAL_PCD_ResetCallback
 .text.HAL_PCD_SuspendCallback
                0x08002d4c       0x20 Src\usbd_conf.o
                0x08002d4c                HAL_PCD_SuspendCallback
 .text.HAL_PCD_ResumeCallback
                0x08002d6c        0x8 Src\usbd_conf.o
                0x08002d6c                HAL_PCD_ResumeCallback
 .text.USBD_LL_Init
                0x08002d74       0x90 Src\usbd_conf.o
                0x08002d74                USBD_LL_Init
 .text.USBD_LL_Start
                0x08002e04       0x1c Src\usbd_conf.o
                0x08002e04                USBD_LL_Start
 .text.USBD_LL_OpenEP
                0x08002e20       0x20 Src\usbd_conf.o
                0x08002e20                USBD_LL_OpenEP
 .text.USBD_LL_CloseEP
                0x08002e40       0x1c Src\usbd_conf.o
                0x08002e40                USBD_LL_CloseEP
 .text.USBD_LL_StallEP
                0x08002e5c       0x1c Src\usbd_conf.o
                0x08002e5c                USBD_LL_StallEP
 .text.USBD_LL_ClearStallEP
                0x08002e78       0x1c Src\usbd_conf.o
                0x08002e78                USBD_LL_ClearStallEP
 .text.USBD_LL_IsStallEP
                0x08002e94       0x20 Src\usbd_conf.o
                0x08002e94                USBD_LL_IsStallEP
 .text.USBD_LL_SetUSBAddress
                0x08002eb4       0x1c Src\usbd_conf.o
                0x08002eb4                USBD_LL_SetUSBAddress
 .text.USBD_LL_Transmit
                0x08002ed0       0x1c Src\usbd_conf.o
                0x08002ed0                USBD_LL_Transmit
 .text.USBD_LL_PrepareReceive
                0x08002eec       0x1c Src\usbd_conf.o
                0x08002eec                USBD_LL_PrepareReceive
 .text.USBD_LL_GetRxDataSize
                0x08002f08        0xc Src\usbd_conf.o
                0x08002f08                USBD_LL_GetRxDataSize
 .text.USBD_static_malloc
                0x08002f14        0x8 Src\usbd_conf.o
                0x08002f14                USBD_static_malloc
 .text.USBD_static_free
                0x08002f1c        0x2 Src\usbd_conf.o
                0x08002f1c                USBD_static_free
 .text.HAL_PCDEx_SetConnectionState
                0x08002f1e        0x2 Src\usbd_conf.o
                0x08002f1e                HAL_PCDEx_SetConnectionState
 .text.USBD_FS_DeviceDescriptor
                0x08002f20        0xc Src\usbd_desc.o
                0x08002f20                USBD_FS_DeviceDescriptor
 .text.USBD_FS_LangIDStrDescriptor
                0x08002f2c        0xc Src\usbd_desc.o
                0x08002f2c                USBD_FS_LangIDStrDescriptor
 .text.USBD_FS_ManufacturerStrDescriptor
                0x08002f38       0x1c Src\usbd_desc.o
                0x08002f38                USBD_FS_ManufacturerStrDescriptor
 .text.USBD_FS_ProductStrDescriptor
                0x08002f54       0x1c Src\usbd_desc.o
                0x08002f54                USBD_FS_ProductStrDescriptor
 .text.USBD_FS_SerialStrDescriptor
                0x08002f70       0x1c Src\usbd_desc.o
                0x08002f70                USBD_FS_SerialStrDescriptor
 .text.USBD_FS_ConfigStrDescriptor
                0x08002f8c       0x1c Src\usbd_desc.o
                0x08002f8c                USBD_FS_ConfigStrDescriptor
 .text.USBD_FS_InterfaceStrDescriptor
                0x08002fa8       0x1c Src\usbd_desc.o
                0x08002fa8                USBD_FS_InterfaceStrDescriptor
 .text.Reset_Handler
                0x08002fc4       0x48 startup\startup_stm32f103xb.o
                0x08002fc4                Reset_Handler
 .text.Default_Handler
                0x0800300c        0x2 startup\startup_stm32f103xb.o
                0x0800300c                RTC_Alarm_IRQHandler
                0x0800300c                EXTI2_IRQHandler
                0x0800300c                TIM1_CC_IRQHandler
                0x0800300c                PVD_IRQHandler
                0x0800300c                EXTI3_IRQHandler
                0x0800300c                EXTI0_IRQHandler
                0x0800300c                I2C2_EV_IRQHandler
                0x0800300c                ADC1_2_IRQHandler
                0x0800300c                SPI1_IRQHandler
                0x0800300c                TAMPER_IRQHandler
                0x0800300c                DMA1_Channel4_IRQHandler
                0x0800300c                USART3_IRQHandler
                0x0800300c                RTC_IRQHandler
                0x0800300c                DMA1_Channel7_IRQHandler
                0x0800300c                CAN1_RX1_IRQHandler
                0x0800300c                TIM4_IRQHandler
                0x0800300c                I2C1_EV_IRQHandler
                0x0800300c                DMA1_Channel6_IRQHandler
                0x0800300c                TIM3_IRQHandler
                0x0800300c                RCC_IRQHandler
                0x0800300c                TIM1_TRG_COM_IRQHandler
                0x0800300c                DMA1_Channel1_IRQHandler
                0x0800300c                Default_Handler
                0x0800300c                EXTI15_10_IRQHandler
                0x0800300c                EXTI9_5_IRQHandler
                0x0800300c                SPI2_IRQHandler
                0x0800300c                DMA1_Channel5_IRQHandler
                0x0800300c                EXTI4_IRQHandler
                0x0800300c                USB_HP_CAN1_TX_IRQHandler
                0x0800300c                DMA1_Channel3_IRQHandler
                0x0800300c                TIM1_UP_IRQHandler
                0x0800300c                WWDG_IRQHandler
                0x0800300c                TIM2_IRQHandler
                0x0800300c                TIM1_BRK_IRQHandler
                0x0800300c                EXTI1_IRQHandler
                0x0800300c                USART2_IRQHandler
                0x0800300c                I2C2_ER_IRQHandler
                0x0800300c                DMA1_Channel2_IRQHandler
                0x0800300c                CAN1_SCE_IRQHandler
                0x0800300c                FLASH_IRQHandler
                0x0800300c                USART1_IRQHandler
                0x0800300c                I2C1_ER_IRQHandler
                0x0800300c                USBWakeUp_IRQHandler
 *fill*         0x0800300e        0x2 
 .text.__libc_init_array
                0x08003010       0x48 c:/program files (x86)/atollic/truestudio for stm32 9.0.1/armtools/bin/../lib/gcc/arm-atollic-eabi/6.3.1/../../../../arm-atollic-eabi/lib/armv7-m\libc_nano.a(lib_a-init.o)
                0x08003010                __libc_init_array
 .text.strncpy  0x08003058       0x2a c:/program files (x86)/atollic/truestudio for stm32 9.0.1/armtools/bin/../lib/gcc/arm-atollic-eabi/6.3.1/../../../../arm-atollic-eabi/lib/armv7-m\libc_nano.a(lib_a-strncpy.o)
                0x08003058                strncpy
 *(.glue_7)
 .glue_7        0x08003082        0x0 linker stubs
 *(.glue_7t)
 .glue_7t       0x08003082        0x0 linker stubs
 *(.eh_frame)
 *fill*         0x08003082        0x2 
 .eh_frame      0x08003084        0x0 c:/program files (x86)/atollic/truestudio for stm32 9.0.1/armtools/bin/../lib/gcc/arm-atollic-eabi/6.3.1/armv7-m/crtbegin.o
 *(.init)
 .init          0x08003084        0x4 c:/program files (x86)/atollic/truestudio for stm32 9.0.1/armtools/bin/../lib/gcc/arm-atollic-eabi/6.3.1/armv7-m/crti.o
                0x08003084                _init
 .init          0x08003088        0x8 c:/program files (x86)/atollic/truestudio for stm32 9.0.1/armtools/bin/../lib/gcc/arm-atollic-eabi/6.3.1/armv7-m/crtn.o
 *(.fini)
 .fini          0x08003090        0x4 c:/program files (x86)/atollic/truestudio for stm32 9.0.1/armtools/bin/../lib/gcc/arm-atollic-eabi/6.3.1/armv7-m/crti.o
                0x08003090                _fini
 .fini          0x08003094        0x8 c:/program files (x86)/atollic/truestudio for stm32 9.0.1/armtools/bin/../lib/gcc/arm-atollic-eabi/6.3.1/armv7-m/crtn.o
                0x0800309c                . = ALIGN (0x4)
                0x0800309c                _etext = .

.vfp11_veneer   0x0800309c        0x0
 .vfp11_veneer  0x0800309c        0x0 linker stubs

.v4_bx          0x0800309c        0x0
 .v4_bx         0x0800309c        0x0 linker stubs

.iplt           0x0800309c        0x0
 .iplt          0x0800309c        0x0 c:/program files (x86)/atollic/truestudio for stm32 9.0.1/armtools/bin/../lib/gcc/arm-atollic-eabi/6.3.1/armv7-m/crtbegin.o

.rodata         0x0800309c       0x90
                0x0800309c                . = ALIGN (0x4)
 *(.rodata)
 .rodata        0x0800309c       0x10 Drivers\STM32F1xx_HAL_Driver\Src\stm32f1xx_hal_rcc.o
 *(.rodata*)
 .rodata.AHBPrescTable
                0x080030ac       0x10 Src\system_stm32f1xx.o
                0x080030ac                AHBPrescTable
 .rodata.APBPrescTable
                0x080030bc        0x8 Src\system_stm32f1xx.o
                0x080030bc                APBPrescTable
 .rodata.CSWTCH.39
                0x080030c4        0x4 Src\usbd_conf.o
 .rodata.USBD_LL_Init.str1.1
                0x080030c8       0x13 Src\usbd_conf.o
 .rodata.USBD_FS_ConfigStrDescriptor.str1.1
                0x080030db        0xb Src\usbd_desc.o
 .rodata.USBD_FS_InterfaceStrDescriptor.str1.1
                0x080030e6        0xe Src\usbd_desc.o
 .rodata.USBD_FS_ManufacturerStrDescriptor.str1.1
                0x080030f4       0x13 Src\usbd_desc.o
 .rodata.USBD_FS_ProductStrDescriptor.str1.1
                0x08003107       0x16 Src\usbd_desc.o
 .rodata.USBD_FS_SerialStrDescriptor.str1.1
                0x0800311d        0xd Src\usbd_desc.o
                0x0800312c                . = ALIGN (0x4)
 *fill*         0x0800312a        0x2 

.rel.dyn        0x0800312c        0x0
 .rel.iplt      0x0800312c        0x0 c:/program files (x86)/atollic/truestudio for stm32 9.0.1/armtools/bin/../lib/gcc/arm-atollic-eabi/6.3.1/armv7-m/crtbegin.o

.ARM.extab
 *(.ARM.extab* .gnu.linkonce.armextab.*)

.ARM            0x0800312c        0x0
                0x0800312c                __exidx_start = .
 *(.ARM.exidx*)
                0x0800312c                __exidx_end = .

.preinit_array  0x0800312c        0x0
                0x0800312c                PROVIDE (__preinit_array_start, .)
 *(.preinit_array*)
                0x0800312c                PROVIDE (__preinit_array_end, .)

.init_array     0x0800312c        0x4
                0x0800312c                PROVIDE (__init_array_start, .)
 *(SORT(.init_array.*))
 *(.init_array*)
 .init_array    0x0800312c        0x4 c:/program files (x86)/atollic/truestudio for stm32 9.0.1/armtools/bin/../lib/gcc/arm-atollic-eabi/6.3.1/armv7-m/crtbegin.o
                0x08003130                PROVIDE (__init_array_end, .)

.fini_array     0x08003130        0x4
                [!provide]                PROVIDE (__fini_array_start, .)
 *(SORT(.fini_array.*))
 *(.fini_array*)
 .fini_array    0x08003130        0x4 c:/program files (x86)/atollic/truestudio for stm32 9.0.1/armtools/bin/../lib/gcc/arm-atollic-eabi/6.3.1/armv7-m/crtbegin.o
                [!provide]                PROVIDE (__fini_array_end, .)
                0x08003134                _sidata = LOADADDR (.data)

.data           0x20000000      0x660 load address 0x08003134
                0x20000000                . = ALIGN (0x4)
                0x20000000                _sdata = .
 *(.data)
 *(.data*)
 .data.uwTickFreq
                0x20000000        0x1 Drivers\STM32F1xx_HAL_Driver\Src\stm32f1xx_hal.o
                0x20000000                uwTickFreq
 *fill*         0x20000001        0x3 
 .data.uwTickPrio
                0x20000004        0x4 Drivers\STM32F1xx_HAL_Driver\Src\stm32f1xx_hal.o
                0x20000004                uwTickPrio
 .data.USBD_CDC
                0x20000008       0x38 Middlewares\ST\STM32_USB_Device_Library\Class\CDC\Src\usbd_cdc.o
                0x20000008                USBD_CDC
 .data.USBD_CDC_CfgFSDesc
                0x20000040       0x43 Middlewares\ST\STM32_USB_Device_Library\Class\CDC\Src\usbd_cdc.o
                0x20000040                USBD_CDC_CfgFSDesc
 *fill*         0x20000083        0x1 
 .data.USBD_CDC_CfgHSDesc
                0x20000084       0x43 Middlewares\ST\STM32_USB_Device_Library\Class\CDC\Src\usbd_cdc.o
                0x20000084                USBD_CDC_CfgHSDesc
 *fill*         0x200000c7        0x1 
 .data.USBD_CDC_DeviceQualifierDesc
                0x200000c8        0xa Middlewares\ST\STM32_USB_Device_Library\Class\CDC\Src\usbd_cdc.o
 *fill*         0x200000d2        0x2 
 .data.USBD_CDC_OtherSpeedCfgDesc
                0x200000d4       0x43 Middlewares\ST\STM32_USB_Device_Library\Class\CDC\Src\usbd_cdc.o
                0x200000d4                USBD_CDC_OtherSpeedCfgDesc
 .data.LCD_Buffer
                0x20000117      0x500 Src\main.o
                0x20000117                LCD_Buffer
 *fill*         0x20000617        0x1 
 .data.SystemCoreClock
                0x20000618        0x4 Src\system_stm32f1xx.o
                0x20000618                SystemCoreClock
 .data.USBD_Interface_fops_FS
                0x2000061c       0x10 Src\usbd_cdc_if.o
                0x2000061c                USBD_Interface_fops_FS
 .data.FS_Desc  0x2000062c       0x1c Src\usbd_desc.o
                0x2000062c                FS_Desc
 .data.USBD_FS_DeviceDesc
                0x20000648       0x12 Src\usbd_desc.o
                0x20000648                USBD_FS_DeviceDesc
 *fill*         0x2000065a        0x2 
 .data.USBD_LangIDDesc
                0x2000065c        0x4 Src\usbd_desc.o
                0x2000065c                USBD_LangIDDesc
                0x20000660                . = ALIGN (0x4)
                0x20000660                _edata = .

.igot.plt       0x20000660        0x0 load address 0x08003794
 .igot.plt      0x20000660        0x0 c:/program files (x86)/atollic/truestudio for stm32 9.0.1/armtools/bin/../lib/gcc/arm-atollic-eabi/6.3.1/armv7-m/crtbegin.o
                0x20000660                . = ALIGN (0x4)

.bss            0x20000660     0x1324 load address 0x08003794
                0x20000660                _sbss = .
                0x20000660                __bss_start__ = _sbss
 *(.bss)
 .bss           0x20000660       0x1c c:/program files (x86)/atollic/truestudio for stm32 9.0.1/armtools/bin/../lib/gcc/arm-atollic-eabi/6.3.1/armv7-m/crtbegin.o
 *(.bss*)
 .bss.ifalt.7715
                0x2000067c        0x1 Middlewares\ST\STM32_USB_Device_Library\Class\CDC\Src\usbd_cdc.o
 .bss.cfgidx.7720
                0x2000067d        0x1 Middlewares\ST\STM32_USB_Device_Library\Core\Src\usbd_ctlreq.o
 .bss.temp      0x2000067e        0x2 Src\main.o
                0x2000067e                temp
 .bss.temp_char
                0x20000680        0x7 Src\main.o
                0x20000680                temp_char
 *fill*         0x20000687        0x1 
 .bss.mem.7874  0x20000688      0x220 Src\usbd_conf.o
 *(COMMON)
 COMMON         0x200008a8        0x4 Drivers\STM32F1xx_HAL_Driver\Src\stm32f1xx_hal.o
                0x200008a8                uwTick
 COMMON         0x200008ac       0x81 Src\main.o
                0x200008ac                hi2c1
                0x20000900                LCD_X
                0x20000902                gg
                0x20000904                str_rx
                0x2000092c                LCD_Y
 *fill*         0x2000092d        0x3 
 COMMON         0x20000930      0x224 Src\usb_device.o
                0x20000930                hUsbDeviceFS
 COMMON         0x20000b54      0x7d0 Src\usbd_cdc_if.o
                0x20000b54                UserRxBufferFS
                0x20000f3c                UserTxBufferFS
 COMMON         0x20001324      0x460 Src\usbd_conf.o
                0x20001324                hpcd_USB_FS
 COMMON         0x20001784      0x200 Src\usbd_desc.o
                0x20001784                USBD_StrDesc
                0x20001984                . = ALIGN (0x4)
                0x20001984                _ebss = .
                0x20001984                __bss_end__ = _ebss

._user_heap_stack
                0x20001984      0x600 load address 0x08003794
                0x20001984                . = ALIGN (0x4)
                [!provide]                PROVIDE (end, .)
                [!provide]                PROVIDE (_end, .)
                0x20001b84                . = (. + _Min_Heap_Size)
 *fill*         0x20001984      0x200 
                0x20001f84                . = (. + _Min_Stack_Size)
 *fill*         0x20001b84      0x400 
                0x20001f84                . = ALIGN (0x4)

/DISCARD/
 libc.a(*)
 libm.a(*)
 libgcc.a(*)

.ARM.attributes
                0x00000000       0x29
 *(.ARM.attributes)
 .ARM.attributes
                0x00000000       0x1d c:/program files (x86)/atollic/truestudio for stm32 9.0.1/armtools/bin/../lib/gcc/arm-atollic-eabi/6.3.1/armv7-m/crti.o
 .ARM.attributes
                0x0000001d       0x2d c:/program files (x86)/atollic/truestudio for stm32 9.0.1/armtools/bin/../lib/gcc/arm-atollic-eabi/6.3.1/armv7-m/crtbegin.o
 .ARM.attributes
                0x0000004a       0x33 Drivers\STM32F1xx_HAL_Driver\Src\stm32f1xx_hal.o
 .ARM.attributes
                0x0000007d       0x33 Drivers\STM32F1xx_HAL_Driver\Src\stm32f1xx_hal_cortex.o
 .ARM.attributes
                0x000000b0       0x33 Drivers\STM32F1xx_HAL_Driver\Src\stm32f1xx_hal_gpio.o
 .ARM.attributes
                0x000000e3       0x33 Drivers\STM32F1xx_HAL_Driver\Src\stm32f1xx_hal_i2c.o
 .ARM.attributes
                0x00000116       0x33 Drivers\STM32F1xx_HAL_Driver\Src\stm32f1xx_hal_pcd.o
 .ARM.attributes
                0x00000149       0x33 Drivers\STM32F1xx_HAL_Driver\Src\stm32f1xx_hal_pcd_ex.o
 .ARM.attributes
                0x0000017c       0x33 Drivers\STM32F1xx_HAL_Driver\Src\stm32f1xx_hal_rcc.o
 .ARM.attributes
                0x000001af       0x33 Drivers\STM32F1xx_HAL_Driver\Src\stm32f1xx_hal_rcc_ex.o
 .ARM.attributes
                0x000001e2       0x33 Drivers\STM32F1xx_HAL_Driver\Src\stm32f1xx_ll_usb.o
 .ARM.attributes
                0x00000215       0x33 Middlewares\ST\STM32_USB_Device_Library\Class\CDC\Src\usbd_cdc.o
 .ARM.attributes
                0x00000248       0x33 Middlewares\ST\STM32_USB_Device_Library\Core\Src\usbd_core.o
 .ARM.attributes
                0x0000027b       0x33 Middlewares\ST\STM32_USB_Device_Library\Core\Src\usbd_ctlreq.o
 .ARM.attributes
                0x000002ae       0x33 Middlewares\ST\STM32_USB_Device_Library\Core\Src\usbd_ioreq.o
 .ARM.attributes
                0x000002e1       0x33 Src\main.o
 .ARM.attributes
                0x00000314       0x33 Src\stm32f1xx_hal_msp.o
 .ARM.attributes
                0x00000347       0x33 Src\stm32f1xx_it.o
 .ARM.attributes
                0x0000037a       0x33 Src\system_stm32f1xx.o
 .ARM.attributes
                0x000003ad       0x33 Src\usb_device.o
 .ARM.attributes
                0x000003e0       0x33 Src\usbd_cdc_if.o
 .ARM.attributes
                0x00000413       0x33 Src\usbd_conf.o
 .ARM.attributes
                0x00000446       0x33 Src\usbd_desc.o
 .ARM.attributes
                0x00000479       0x21 startup\startup_stm32f103xb.o
 .ARM.attributes
                0x0000049a       0x2d c:/program files (x86)/atollic/truestudio for stm32 9.0.1/armtools/bin/../lib/gcc/arm-atollic-eabi/6.3.1/../../../../arm-atollic-eabi/lib/armv7-m\libc_nano.a(lib_a-init.o)
 .ARM.attributes
                0x000004c7       0x17 c:/program files (x86)/atollic/truestudio for stm32 9.0.1/armtools/bin/../lib/gcc/arm-atollic-eabi/6.3.1/../../../../arm-atollic-eabi/lib/armv7-m\libc_nano.a(lib_a-strlen.o)
 .ARM.attributes
                0x000004de       0x2d c:/program files (x86)/atollic/truestudio for stm32 9.0.1/armtools/bin/../lib/gcc/arm-atollic-eabi/6.3.1/../../../../arm-atollic-eabi/lib/armv7-m\libc_nano.a(lib_a-strncpy.o)
 .ARM.attributes
                0x0000050b       0x1d c:/program files (x86)/atollic/truestudio for stm32 9.0.1/armtools/bin/../lib/gcc/arm-atollic-eabi/6.3.1/armv7-m/crtn.o
OUTPUT(oled.elf elf32-littlearm)

.debug_info     0x00000000    0x1af4d
 .debug_info    0x00000000      0xfba Drivers\STM32F1xx_HAL_Driver\Src\stm32f1xx_hal.o
 .debug_info    0x00000fba     0x1463 Drivers\STM32F1xx_HAL_Driver\Src\stm32f1xx_hal_cortex.o
 .debug_info    0x0000241d      0xe7c Drivers\STM32F1xx_HAL_Driver\Src\stm32f1xx_hal_gpio.o
 .debug_info    0x00003299     0x38a4 Drivers\STM32F1xx_HAL_Driver\Src\stm32f1xx_hal_i2c.o
 .debug_info    0x00006b3d     0x1979 Drivers\STM32F1xx_HAL_Driver\Src\stm32f1xx_hal_pcd.o
 .debug_info    0x000084b6      0xdfd Drivers\STM32F1xx_HAL_Driver\Src\stm32f1xx_hal_pcd_ex.o
 .debug_info    0x000092b3     0x11f7 Drivers\STM32F1xx_HAL_Driver\Src\stm32f1xx_hal_rcc.o
 .debug_info    0x0000a4aa      0xc57 Drivers\STM32F1xx_HAL_Driver\Src\stm32f1xx_hal_rcc_ex.o
 .debug_info    0x0000b101     0x1700 Drivers\STM32F1xx_HAL_Driver\Src\stm32f1xx_ll_usb.o
 .debug_info    0x0000c801     0x14f6 Middlewares\ST\STM32_USB_Device_Library\Class\CDC\Src\usbd_cdc.o
 .debug_info    0x0000dcf7     0x1466 Middlewares\ST\STM32_USB_Device_Library\Core\Src\usbd_core.o
 .debug_info    0x0000f15d     0x1499 Middlewares\ST\STM32_USB_Device_Library\Core\Src\usbd_ctlreq.o
 .debug_info    0x000105f6      0xfc5 Middlewares\ST\STM32_USB_Device_Library\Core\Src\usbd_ioreq.o
 .debug_info    0x000115bb     0x1efb Src\main.o
 .debug_info    0x000134b6     0x12f1 Src\stm32f1xx_hal_msp.o
 .debug_info    0x000147a7      0xe13 Src\stm32f1xx_it.o
 .debug_info    0x000155ba      0xc07 Src\system_stm32f1xx.o
 .debug_info    0x000161c1      0xe80 Src\usb_device.o
 .debug_info    0x00017041     0x10b4 Src\usbd_cdc_if.o
 .debug_info    0x000180f5     0x2060 Src\usbd_conf.o
 .debug_info    0x0001a155      0xd7a Src\usbd_desc.o
 .debug_info    0x0001aecf       0x7e startup\startup_stm32f103xb.o

.debug_abbrev   0x00000000     0x3a77
 .debug_abbrev  0x00000000      0x308 Drivers\STM32F1xx_HAL_Driver\Src\stm32f1xx_hal.o
 .debug_abbrev  0x00000308      0x399 Drivers\STM32F1xx_HAL_Driver\Src\stm32f1xx_hal_cortex.o
 .debug_abbrev  0x000006a1      0x268 Drivers\STM32F1xx_HAL_Driver\Src\stm32f1xx_hal_gpio.o
 .debug_abbrev  0x00000909      0x3c1 Drivers\STM32F1xx_HAL_Driver\Src\stm32f1xx_hal_i2c.o
 .debug_abbrev  0x00000cca      0x39a Drivers\STM32F1xx_HAL_Driver\Src\stm32f1xx_hal_pcd.o
 .debug_abbrev  0x00001064      0x1f5 Drivers\STM32F1xx_HAL_Driver\Src\stm32f1xx_hal_pcd_ex.o
 .debug_abbrev  0x00001259      0x367 Drivers\STM32F1xx_HAL_Driver\Src\stm32f1xx_hal_rcc.o
 .debug_abbrev  0x000015c0      0x277 Drivers\STM32F1xx_HAL_Driver\Src\stm32f1xx_hal_rcc_ex.o
 .debug_abbrev  0x00001837      0x31c Drivers\STM32F1xx_HAL_Driver\Src\stm32f1xx_ll_usb.o
 .debug_abbrev  0x00001b53      0x2e8 Middlewares\ST\STM32_USB_Device_Library\Class\CDC\Src\usbd_cdc.o
 .debug_abbrev  0x00001e3b      0x308 Middlewares\ST\STM32_USB_Device_Library\Core\Src\usbd_core.o
 .debug_abbrev  0x00002143      0x3aa Middlewares\ST\STM32_USB_Device_Library\Core\Src\usbd_ctlreq.o
 .debug_abbrev  0x000024ed      0x1da Middlewares\ST\STM32_USB_Device_Library\Core\Src\usbd_ioreq.o
 .debug_abbrev  0x000026c7      0x36c Src\main.o
 .debug_abbrev  0x00002a33      0x22e Src\stm32f1xx_hal_msp.o
 .debug_abbrev  0x00002c61      0x21e Src\stm32f1xx_it.o
 .debug_abbrev  0x00002e7f      0x1eb Src\system_stm32f1xx.o
 .debug_abbrev  0x0000306a      0x1e0 Src\usb_device.o
 .debug_abbrev  0x0000324a      0x2b6 Src\usbd_cdc_if.o
 .debug_abbrev  0x00003500      0x2ea Src\usbd_conf.o
 .debug_abbrev  0x000037ea      0x27b Src\usbd_desc.o
 .debug_abbrev  0x00003a65       0x12 startup\startup_stm32f103xb.o

.debug_loc      0x00000000     0x7744
 .debug_loc     0x00000000      0x11b Drivers\STM32F1xx_HAL_Driver\Src\stm32f1xx_hal.o
 .debug_loc     0x0000011b      0x46b Drivers\STM32F1xx_HAL_Driver\Src\stm32f1xx_hal_cortex.o
 .debug_loc     0x00000586      0x36a Drivers\STM32F1xx_HAL_Driver\Src\stm32f1xx_hal_gpio.o
 .debug_loc     0x000008f0     0x2bdf Drivers\STM32F1xx_HAL_Driver\Src\stm32f1xx_hal_i2c.o
 .debug_loc     0x000034cf      0x995 Drivers\STM32F1xx_HAL_Driver\Src\stm32f1xx_hal_pcd.o
 .debug_loc     0x00003e64       0xe0 Drivers\STM32F1xx_HAL_Driver\Src\stm32f1xx_hal_pcd_ex.o
 .debug_loc     0x00003f44      0x4c3 Drivers\STM32F1xx_HAL_Driver\Src\stm32f1xx_hal_rcc.o
 .debug_loc     0x00004407      0x29d Drivers\STM32F1xx_HAL_Driver\Src\stm32f1xx_hal_rcc_ex.o
 .debug_loc     0x000046a4      0xb9c Drivers\STM32F1xx_HAL_Driver\Src\stm32f1xx_ll_usb.o
 .debug_loc     0x00005240      0x4cf Middlewares\ST\STM32_USB_Device_Library\Class\CDC\Src\usbd_cdc.o
 .debug_loc     0x0000570f      0x5f2 Middlewares\ST\STM32_USB_Device_Library\Core\Src\usbd_core.o
 .debug_loc     0x00005d01      0x7cd Middlewares\ST\STM32_USB_Device_Library\Core\Src\usbd_ctlreq.o
 .debug_loc     0x000064ce      0x23c Middlewares\ST\STM32_USB_Device_Library\Core\Src\usbd_ioreq.o
 .debug_loc     0x0000670a      0x231 Src\main.o
 .debug_loc     0x0000693b       0x4d Src\stm32f1xx_hal_msp.o
 .debug_loc     0x00006988       0xcd Src\system_stm32f1xx.o
 .debug_loc     0x00006a55      0x117 Src\usbd_cdc_if.o
 .debug_loc     0x00006b6c      0x965 Src\usbd_conf.o
 .debug_loc     0x000074d1      0x273 Src\usbd_desc.o

.debug_aranges  0x00000000      0xa98
 .debug_aranges
                0x00000000       0xc8 Drivers\STM32F1xx_HAL_Driver\Src\stm32f1xx_hal.o
 .debug_aranges
                0x000000c8       0x90 Drivers\STM32F1xx_HAL_Driver\Src\stm32f1xx_hal_cortex.o
 .debug_aranges
                0x00000158       0x58 Drivers\STM32F1xx_HAL_Driver\Src\stm32f1xx_hal_gpio.o
 .debug_aranges
                0x000001b0      0x190 Drivers\STM32F1xx_HAL_Driver\Src\stm32f1xx_hal_i2c.o
 .debug_aranges
                0x00000340       0xc0 Drivers\STM32F1xx_HAL_Driver\Src\stm32f1xx_hal_pcd.o
 .debug_aranges
                0x00000400       0x28 Drivers\STM32F1xx_HAL_Driver\Src\stm32f1xx_hal_pcd_ex.o
 .debug_aranges
                0x00000428       0x88 Drivers\STM32F1xx_HAL_Driver\Src\stm32f1xx_hal_rcc.o
 .debug_aranges
                0x000004b0       0x30 Drivers\STM32F1xx_HAL_Driver\Src\stm32f1xx_hal_rcc_ex.o
 .debug_aranges
                0x000004e0       0xe0 Drivers\STM32F1xx_HAL_Driver\Src\stm32f1xx_ll_usb.o
 .debug_aranges
                0x000005c0       0x90 Middlewares\ST\STM32_USB_Device_Library\Class\CDC\Src\usbd_cdc.o
 .debug_aranges
                0x00000650       0xa8 Middlewares\ST\STM32_USB_Device_Library\Core\Src\usbd_core.o
 .debug_aranges
                0x000006f8       0x50 Middlewares\ST\STM32_USB_Device_Library\Core\Src\usbd_ctlreq.o
 .debug_aranges
                0x00000748       0x50 Middlewares\ST\STM32_USB_Device_Library\Core\Src\usbd_ioreq.o
 .debug_aranges
                0x00000798       0x70 Src\main.o
 .debug_aranges
                0x00000808       0x30 Src\stm32f1xx_hal_msp.o
 .debug_aranges
                0x00000838       0x50 Src\stm32f1xx_it.o
 .debug_aranges
                0x00000888       0x28 Src\system_stm32f1xx.o
 .debug_aranges
                0x000008b0       0x20 Src\usb_device.o
 .debug_aranges
                0x000008d0       0x40 Src\usbd_cdc_if.o
 .debug_aranges
                0x00000910      0x110 Src\usbd_conf.o
 .debug_aranges
                0x00000a20       0x50 Src\usbd_desc.o
 .debug_aranges
                0x00000a70       0x28 startup\startup_stm32f103xb.o

.debug_ranges   0x00000000     0x1048
 .debug_ranges  0x00000000       0xb8 Drivers\STM32F1xx_HAL_Driver\Src\stm32f1xx_hal.o
 .debug_ranges  0x000000b8      0x128 Drivers\STM32F1xx_HAL_Driver\Src\stm32f1xx_hal_cortex.o
 .debug_ranges  0x000001e0       0x60 Drivers\STM32F1xx_HAL_Driver\Src\stm32f1xx_hal_gpio.o
 .debug_ranges  0x00000240      0x438 Drivers\STM32F1xx_HAL_Driver\Src\stm32f1xx_hal_i2c.o
 .debug_ranges  0x00000678      0x118 Drivers\STM32F1xx_HAL_Driver\Src\stm32f1xx_hal_pcd.o
 .debug_ranges  0x00000790       0x18 Drivers\STM32F1xx_HAL_Driver\Src\stm32f1xx_hal_pcd_ex.o
 .debug_ranges  0x000007a8       0xa0 Drivers\STM32F1xx_HAL_Driver\Src\stm32f1xx_hal_rcc.o
 .debug_ranges  0x00000848       0x40 Drivers\STM32F1xx_HAL_Driver\Src\stm32f1xx_hal_rcc_ex.o
 .debug_ranges  0x00000888      0x260 Drivers\STM32F1xx_HAL_Driver\Src\stm32f1xx_ll_usb.o
 .debug_ranges  0x00000ae8       0x80 Middlewares\ST\STM32_USB_Device_Library\Class\CDC\Src\usbd_cdc.o
 .debug_ranges  0x00000b68       0x98 Middlewares\ST\STM32_USB_Device_Library\Core\Src\usbd_core.o
 .debug_ranges  0x00000c00       0xc0 Middlewares\ST\STM32_USB_Device_Library\Core\Src\usbd_ctlreq.o
 .debug_ranges  0x00000cc0       0x40 Middlewares\ST\STM32_USB_Device_Library\Core\Src\usbd_ioreq.o
 .debug_ranges  0x00000d00       0xe8 Src\main.o
 .debug_ranges  0x00000de8       0x40 Src\stm32f1xx_hal_msp.o
 .debug_ranges  0x00000e28       0x40 Src\stm32f1xx_it.o
 .debug_ranges  0x00000e68       0x18 Src\system_stm32f1xx.o
 .debug_ranges  0x00000e80       0x10 Src\usb_device.o
 .debug_ranges  0x00000e90       0x30 Src\usbd_cdc_if.o
 .debug_ranges  0x00000ec0      0x128 Src\usbd_conf.o
 .debug_ranges  0x00000fe8       0x40 Src\usbd_desc.o
 .debug_ranges  0x00001028       0x20 startup\startup_stm32f103xb.o

.debug_line     0x00000000     0x7325
 .debug_line    0x00000000      0x45f Drivers\STM32F1xx_HAL_Driver\Src\stm32f1xx_hal.o
 .debug_line    0x0000045f      0x432 Drivers\STM32F1xx_HAL_Driver\Src\stm32f1xx_hal_cortex.o
 .debug_line    0x00000891      0x44b Drivers\STM32F1xx_HAL_Driver\Src\stm32f1xx_hal_gpio.o
 .debug_line    0x00000cdc     0x1a8b Drivers\STM32F1xx_HAL_Driver\Src\stm32f1xx_hal_i2c.o
 .debug_line    0x00002767      0x6ef Drivers\STM32F1xx_HAL_Driver\Src\stm32f1xx_hal_pcd.o
 .debug_line    0x00002e56      0x2ec Drivers\STM32F1xx_HAL_Driver\Src\stm32f1xx_hal_pcd_ex.o
 .debug_line    0x00003142      0x633 Drivers\STM32F1xx_HAL_Driver\Src\stm32f1xx_hal_rcc.o
 .debug_line    0x00003775      0x3cc Drivers\STM32F1xx_HAL_Driver\Src\stm32f1xx_hal_rcc_ex.o
 .debug_line    0x00003b41      0x615 Drivers\STM32F1xx_HAL_Driver\Src\stm32f1xx_ll_usb.o
 .debug_line    0x00004156      0x50c Middlewares\ST\STM32_USB_Device_Library\Class\CDC\Src\usbd_cdc.o
 .debug_line    0x00004662      0x4f6 Middlewares\ST\STM32_USB_Device_Library\Core\Src\usbd_core.o
 .debug_line    0x00004b58      0x476 Middlewares\ST\STM32_USB_Device_Library\Core\Src\usbd_ctlreq.o
 .debug_line    0x00004fce      0x38c Middlewares\ST\STM32_USB_Device_Library\Core\Src\usbd_ioreq.o
 .debug_line    0x0000535a      0x5b2 Src\main.o
 .debug_line    0x0000590c      0x322 Src\stm32f1xx_hal_msp.o
 .debug_line    0x00005c2e      0x337 Src\stm32f1xx_it.o
 .debug_line    0x00005f65      0x288 Src\system_stm32f1xx.o
 .debug_line    0x000061ed      0x367 Src\usb_device.o
 .debug_line    0x00006554      0x397 Src\usbd_cdc_if.o
 .debug_line    0x000068eb      0x651 Src\usbd_conf.o
 .debug_line    0x00006f3c      0x36c Src\usbd_desc.o
 .debug_line    0x000072a8       0x7d startup\startup_stm32f103xb.o

.debug_str      0x00000000     0x3904
 .debug_str     0x00000000      0xbd3 Drivers\STM32F1xx_HAL_Driver\Src\stm32f1xx_hal.o
                                0xc74 (size before relaxing)
 .debug_str     0x00000bd3      0x2e1 Drivers\STM32F1xx_HAL_Driver\Src\stm32f1xx_hal_cortex.o
                                0xd22 (size before relaxing)
 .debug_str     0x00000eb4      0x1c9 Drivers\STM32F1xx_HAL_Driver\Src\stm32f1xx_hal_gpio.o
                                0x88f (size before relaxing)
 .debug_str     0x0000107d      0xc35 Drivers\STM32F1xx_HAL_Driver\Src\stm32f1xx_hal_i2c.o
                               0x1325 (size before relaxing)
 .debug_str     0x00001cb2      0x797 Drivers\STM32F1xx_HAL_Driver\Src\stm32f1xx_hal_pcd.o
                                0xe89 (size before relaxing)
 .debug_str     0x00002449       0x57 Drivers\STM32F1xx_HAL_Driver\Src\stm32f1xx_hal_pcd_ex.o
                                0x9b4 (size before relaxing)
 .debug_str     0x000024a0      0x306 Drivers\STM32F1xx_HAL_Driver\Src\stm32f1xx_hal_rcc.o
                                0xa6d (size before relaxing)
 .debug_str     0x000027a6      0x12b Drivers\STM32F1xx_HAL_Driver\Src\stm32f1xx_hal_rcc_ex.o
                                0x84a (size before relaxing)
 .debug_str     0x000028d1      0x15b Drivers\STM32F1xx_HAL_Driver\Src\stm32f1xx_ll_usb.o
                                0xb87 (size before relaxing)
 .debug_str     0x00002a2c      0x64f Middlewares\ST\STM32_USB_Device_Library\Class\CDC\Src\usbd_cdc.o
                                0xd33 (size before relaxing)
 .debug_str     0x0000307b      0x2a0 Middlewares\ST\STM32_USB_Device_Library\Core\Src\usbd_core.o
                                0xca5 (size before relaxing)
 .debug_str     0x0000331b      0x12e Middlewares\ST\STM32_USB_Device_Library\Core\Src\usbd_ctlreq.o
                                0xbbf (size before relaxing)
 .debug_str     0x00003449       0x51 Middlewares\ST\STM32_USB_Device_Library\Core\Src\usbd_ioreq.o
                                0xaec (size before relaxing)
 .debug_str     0x0000349a      0x13f Src\main.o
                               0x1529 (size before relaxing)
 .debug_str     0x000035d9       0x2b Src\stm32f1xx_hal_msp.o
                                0xe9c (size before relaxing)
 .debug_str     0x00003604       0xcd Src\stm32f1xx_it.o
                                0x9f8 (size before relaxing)
 .debug_str     0x000036d1       0x4d Src\system_stm32f1xx.o
                                0x6f8 (size before relaxing)
 .debug_str     0x0000371e       0x14 Src\usb_device.o
                                0xa85 (size before relaxing)
 .debug_str     0x00003732       0x73 Src\usbd_cdc_if.o
                                0xb8e (size before relaxing)
 .debug_str     0x000037a5       0x51 Src\usbd_conf.o
                               0x1586 (size before relaxing)
 .debug_str     0x000037f6      0x10e Src\usbd_desc.o
                                0x860 (size before relaxing)

.comment        0x00000000       0x7c
 .comment       0x00000000       0x7c Drivers\STM32F1xx_HAL_Driver\Src\stm32f1xx_hal.o
                                 0x7d (size before relaxing)
 .comment       0x0000007c       0x7d Drivers\STM32F1xx_HAL_Driver\Src\stm32f1xx_hal_cortex.o
 .comment       0x0000007c       0x7d Drivers\STM32F1xx_HAL_Driver\Src\stm32f1xx_hal_gpio.o
 .comment       0x0000007c       0x7d Drivers\STM32F1xx_HAL_Driver\Src\stm32f1xx_hal_i2c.o
 .comment       0x0000007c       0x7d Drivers\STM32F1xx_HAL_Driver\Src\stm32f1xx_hal_pcd.o
 .comment       0x0000007c       0x7d Drivers\STM32F1xx_HAL_Driver\Src\stm32f1xx_hal_pcd_ex.o
 .comment       0x0000007c       0x7d Drivers\STM32F1xx_HAL_Driver\Src\stm32f1xx_hal_rcc.o
 .comment       0x0000007c       0x7d Drivers\STM32F1xx_HAL_Driver\Src\stm32f1xx_hal_rcc_ex.o
 .comment       0x0000007c       0x7d Drivers\STM32F1xx_HAL_Driver\Src\stm32f1xx_ll_usb.o
 .comment       0x0000007c       0x7d Middlewares\ST\STM32_USB_Device_Library\Class\CDC\Src\usbd_cdc.o
 .comment       0x0000007c       0x7d Middlewares\ST\STM32_USB_Device_Library\Core\Src\usbd_core.o
 .comment       0x0000007c       0x7d Middlewares\ST\STM32_USB_Device_Library\Core\Src\usbd_ctlreq.o
 .comment       0x0000007c       0x7d Middlewares\ST\STM32_USB_Device_Library\Core\Src\usbd_ioreq.o
 .comment       0x0000007c       0x7d Src\main.o
 .comment       0x0000007c       0x7d Src\stm32f1xx_hal_msp.o
 .comment       0x0000007c       0x7d Src\stm32f1xx_it.o
 .comment       0x0000007c       0x7d Src\system_stm32f1xx.o
 .comment       0x0000007c       0x7d Src\usb_device.o
 .comment       0x0000007c       0x7d Src\usbd_cdc_if.o
 .comment       0x0000007c       0x7d Src\usbd_conf.o
 .comment       0x0000007c       0x7d Src\usbd_desc.o

.debug_frame    0x00000000     0x1c38
 .debug_frame   0x00000000      0x1b0 Drivers\STM32F1xx_HAL_Driver\Src\stm32f1xx_hal.o
 .debug_frame   0x000001b0      0x120 Drivers\STM32F1xx_HAL_Driver\Src\stm32f1xx_hal_cortex.o
 .debug_frame   0x000002d0       0xd4 Drivers\STM32F1xx_HAL_Driver\Src\stm32f1xx_hal_gpio.o
 .debug_frame   0x000003a4      0x684 Drivers\STM32F1xx_HAL_Driver\Src\stm32f1xx_hal_i2c.o
 .debug_frame   0x00000a28      0x2c4 Drivers\STM32F1xx_HAL_Driver\Src\stm32f1xx_hal_pcd.o
 .debug_frame   0x00000cec       0x30 Drivers\STM32F1xx_HAL_Driver\Src\stm32f1xx_hal_pcd_ex.o
 .debug_frame   0x00000d1c      0x150 Drivers\STM32F1xx_HAL_Driver\Src\stm32f1xx_hal_rcc.o
 .debug_frame   0x00000e6c       0x6c Drivers\STM32F1xx_HAL_Driver\Src\stm32f1xx_hal_rcc_ex.o
 .debug_frame   0x00000ed8      0x22c Drivers\STM32F1xx_HAL_Driver\Src\stm32f1xx_ll_usb.o
 .debug_frame   0x00001104      0x14c Middlewares\ST\STM32_USB_Device_Library\Class\CDC\Src\usbd_cdc.o
 .debug_frame   0x00001250      0x1c0 Middlewares\ST\STM32_USB_Device_Library\Core\Src\usbd_core.o
 .debug_frame   0x00001410       0xcc Middlewares\ST\STM32_USB_Device_Library\Core\Src\usbd_ctlreq.o
 .debug_frame   0x000014dc       0xb8 Middlewares\ST\STM32_USB_Device_Library\Core\Src\usbd_ioreq.o
 .debug_frame   0x00001594      0x130 Src\main.o
 .debug_frame   0x000016c4       0x54 Src\stm32f1xx_hal_msp.o
 .debug_frame   0x00001718       0xbc Src\stm32f1xx_it.o
 .debug_frame   0x000017d4       0x30 Src\system_stm32f1xx.o
 .debug_frame   0x00001804       0x2c Src\usb_device.o
 .debug_frame   0x00001830       0x84 Src\usbd_cdc_if.o
 .debug_frame   0x000018b4      0x284 Src\usbd_conf.o
 .debug_frame   0x00001b38       0xa8 Src\usbd_desc.o
 .debug_frame   0x00001be0       0x2c c:/program files (x86)/atollic/truestudio for stm32 9.0.1/armtools/bin/../lib/gcc/arm-atollic-eabi/6.3.1/../../../../arm-atollic-eabi/lib/armv7-m\libc_nano.a(lib_a-init.o)
 .debug_frame   0x00001c0c       0x2c c:/program files (x86)/atollic/truestudio for stm32 9.0.1/armtools/bin/../lib/gcc/arm-atollic-eabi/6.3.1/../../../../arm-atollic-eabi/lib/armv7-m\libc_nano.a(lib_a-strncpy.o)
